:10002000000000000000000000000CA20CA20CA2C6
:10003000000000000000000000001F7F0000000022
:100040000000004808180FFF00000000000000003A
:0900500000021A006901030059C5
:02009900010361
:0400AC0000B000B0F0
:030100007E064434
:100151001E52554E1E06BE4C4953541E06EC4E45CA
:10016100571E06445041541E072E474F5355421EF9
:10017100081A474F544F1E083D474F20544F1E0841
:100181003D53495A451E0A665448454E1E0C265099
:1001910052494E541E093E4C45541E0A42494E5086
:1001A10055541E088749461E0C11454E441E0660D3
:1001B10052455455524E1E085044494D1E0A884618
:1001C1004F521E0B444E4558541E0BB452454D1E02
:0E01D1000A8250415553451E0866201E0A4200
:10021B000D0A150A1552454144591E23001E1E1086
:10022B00161E1E1E4552524F5223201E20494E2091
:10023B004C494E45201E863F8D4DCE00B0C60A8DD3
:10024B0049810026065A26F77E06609145272681AE
:10025B000D272B810A27E8811527E4811327E091CD
:10026B004426088C00B027D70920D48C00F727CF61
:10027B00A7000820CA8D32CE02268D2620BC861EF2
:10028B00A700DFAE8D23397EE1D17EE1AC7E029BF0
:10029B0036B680042B037E066032398D05200A8D1D
:1002AB00E608A600811E26F7398D12CE02BE8DF20E
:1002BB008D2039000D0A151EFFFFFFFF1EDF38DEF4
:1002CB003A0909DF3A369638A7009639A70132DE8C
:1002DB003839DE3AEE007C003B7C003B3936378DFB
:1002EB00DCBD046EDE510808DF5109EE00A700E704
:1002FB00018DDF3332398DC53637DE510808DF51BA
:10030B0009EE00A600E601BD046333328DC439DE6D
:10031B002ADF2CDE2E2002DE249C2C27058D0408E0
:10032B0020F739A6007F004208E600087F004CBD8D
:10033B0009FB8D22A600088D84CE0152DF4A974B14
:10034B00DE4A0909A600811E26F9080808BD02AD80
:10035B00BD02DD7E02A6368620BD02923239080828
:10036B00A60081442665BD02C8963CD63DCE000052
:10037B00E901A90008088C003C26F5847F973CD73F
:10038B003DDF209620D6217E0444BD05E501010109
:10039B00BD044D24013981522606E601C14E27BE0C
:1003AB00BD02C880409756489B569756DE559655CA
:1003BB00D6566D0226037E0444EE00DF3E0808DFAE
:1003CB0040BD02DDBD05EB812827037E08D208BDA9
:1003DB0004BDBD02C8BD046E4D27037E0AD5DE3EAB
:1003EB005D27F8E10022F4A601974F2730DE405A33
:1003FB002709964F08084A26FB20F4DF40BD02DD93
:10040B00BD05E5812C26C408BD04BDBD02C8BD04D5
:10041B006E4D26C7DE3E5D27C2E10122BEDE4008DF
:10042B00085A26FB0909DF40BD02DDBD05E5812920
:10043B002699BD02C89640D641BD02DD08BD0463B6
:10044B000C3981412B0C815A2F0A81302B048139B5
:10045B002F020D390C398D0B9F289E5137369F512A
:10046B009E28399F289E5132339F519E2839BD05B6
:10047B00E5BD03952504BD030139BD08D725013919
:10048B008128260C088D2BBD05E58129260208390C
:10049B00C60D7E06928DD7BD05E5812A2607088DF0
:1004AB00CD8D4120F2812F2608088DC2BD0542203B
:1004BB00E639BD05E5812D2608088DD9BD058D20B2
:1004CB0007812B2601088DCDBD05E5812B2608085C
:1004DB008DC3BD05A320F1812D2608088DB7BD0561
:1004EB00A120E5398D32860FA7005F4F64036604A8
:1004FB00240BEB02A901240586027E069268026991
:10050B00016A0026E74D2BF07D004C2A03BD059AAE
:10051B00E704A703BD02DD39BD02C84FDE516D01F3
:10052B002A048D5E86800808DF516D012A048D52E6
:10053B008B80974C0909398DDF6D0126096D0226D9
:10054B0005C6087E069286014C680269012B048160
:10055B001126F5A700A603E6046F036F04E002A2C1
:10056B00012407EB02A9010C20010D690469036446
:10057B000166026A0026E67D004C2A028D04BD024C
:10058B00DD393637BD046E8D06BD04633332394316
:10059B0053CB018900398DEABD046ED750974FBDFF
:1005AB00046EDB50994FBD04630C399632D633D0B1
:1005BB00319230251CDE2EBD0461E001A200251313
:1005CB0026035D270F088D18811E26FA089C2A2604
:1005DB00E6DE2A0DDF2CBD046E39A6008120260332
:1005EB000820F739BD08F22405C6077E0692BD0424
:1005FB00619730D731DFAC39DE34A60008811E2677
:10060B00F9DF36398DD4DF269F28CE01519E263453
:10061B000832E600C11E27131127F5088C01DC27D1
:10062B0012E600C11E26F4080820E2089FAC9F3496
:10063B009E28399E28CE01DD39DE2EDF2ADF2CDF06
:10064B0048094F08A7009C4626F94F9730973197DA
:10065B0042DE30DF328E1F45CE021BBD02A68E1F3F
:10066B0045CE1F7FDF3A7F0042BD0282CE00B0BD78
:10067B0005E5DFACBD045525037E0740811E27DE53
:10068B00BD060FEE006E008E1F45BD02B4CE022FCD
:10069B00BD02AD4FBD0463BD09E0CE0237BD02AD57
:1006AB005F96362706DE36A600E601BD09FBBD02C6
:1006BB00B420A2DE2EDF36CE0059DF57CE0069DF25
:1006CB0053CE1F7FDF3ADE2ADF484F0908A7009C75
:1006DB004626F9CE0103C64EA700085A26FA7E0716
:1006EB00F3CE022ABD02A6DE34BD05E5811E272C02
:1006FB00BD08F2DF34BD05C0DF24DE3436BD05E5B1
:10070B00811E322605BD0463200408BD08F24FC6C6
:10071B0001BD05A6BD05C0BD03222003BD031A7E86
:10072B000A8201BD0603CE07F3FF1F468E1F40BF93
:10073B001F087EE0E3BD05EFBD05B6240ADE2C9C49
:10074B002A271E8D502017DEACBD05E5811E260A1B
:10075B00DE2A9C2E27088D1120048D0D8D377E06E9
:10076B00698D32DE30DF3220F59F28DE2C9E2AC6C3
:10077B000208083434A60034085C811E26F79F2A31
:10078B009F48DE2CF707979C2A2707A600A700088F
:10079B0020F59E2839DEACBD060FDF4AD6AFD0ADB3
:1007AB00CB04F707CADB2B8600992A91462234D754
:1007BB002B972ADE2ADF489C2C270709A600A700C7
:1007CB0020F5DE2C9F289630A700089631A700084D
:1007DB00964BA700089EAC3432A70008811E26F862
:1007EB009E2839C60E7E0692DE369C2A26037E068E
:1007FB00607D003627F80808A60008DF34CE0152CA
:10080B00DF4A974BCE021ADF51DE4AEE006E00DE56
:10081B0036DF20BD0603DE578C00692605C6097E30
:10082B0006929636A700089637A70008DF57DE20FA
:10083B00DF36DE34BD04BDBD05C02405C6077E060C
:10084B0092DF3620A3DE578C00592605C60A7E069A
:10085B00920909DF57EE00DF36208DCE01D3BD02A2
:10086B00ADBD0361DE36A60008E60008BD09FBBD81
:10087B000295810D26F9BD02B47E0A8296342604B8
:10088B00C60C2020BD0241CE00B0DFACDE34BD0370
:10089B0095252CDF34DEAC8D43241409A600811E74
:1008AB002705C6027E0692BD0241CE00B020E8BDF0
:1008BB0002E808DFACDE34BD05E508812C27CF0943
:1008CB007F0042811E27B2C6037E06928D19250634
:1008DB00BD046E4D2A020D39BD046339BD05E59784
:1008EB004C08812D2704097F004CBD05E5BD04553F
:1008FB00240139094F5F0836A600BD045525268013
:10090B0030974E3258492518D750974F58492510D4
:10091B005849250CDB50994F2506DB4E890024D610
:10092B00C6027E0692327D004C2703BD059ABD049C
:10093B00630C39DE34BD05E58122261808A60008B4
:10094B008122275A811E2604C6042034BD0292BD83
:10095B0009D020E9811E261409A60008813B270631
:10096B00BD02B47F004208DF367E07F38154262890
:10097B00E601C14126220808A60081422705C60BC5
:10098B007E069208BD04BDBD046ED0422310BD038C
:10099B00618D325A26F82006BD04BDBD09E0BD05A8
:1009AB00E5812C261008964216C4F810270CBD03BF
:1009BB00618D1220F1813B2604087E0940811E27A0
:1009CB0093C60620BB3696424C91432604BD02B417
:1009DB004F97423239BD03618DEB86FF974CBD04B7
:1009EB006E4D2A0CBD059A36862DBD02928DD632E0
:1009FB00BD02C8CE0A387F004EE001A20025057C5F
:100A0B00004E20F5EB01A90036964E260A8C0A40C3
:100A1B0027057D004C260A8B307F004CBD02928D42
:100A2B00A43208088C0A4226CDBD02DD39271003FB
:100A3B00E80064000A0001DE34BD03952405C60CF2
:100A4B007E0692BD05E508813D2704C60620F1BD53
:100A5B0004BD811E26F5BD02E8201CD6499648D060
:100A6B002F922EBD09FBBD0361D6479646D0499206
:100A7B0048BD09FBBD02B4BD06037E07F3DE34BDE2
:100A8B0005E5BD044D24037E0B298040979A489BB6
:100A9B009A979ABD02C8DE996D00261C6D01261827
:100AAB006D0226149649A7019648A700A702BD021E
:100ABB00DDBD05EB81282705C6057E069208BD0422
:100ACB00BDBD04615D27034D2704C60F20EC8D557A
:100ADB00A600812C261208BD04BDBD04615D27EA6A
:100AEB004D26E78D40BD04EF4FC602BD0463BD0428
:100AFB00EFA600812926C108D6499648BD05A64F09
:100B0B00C602BD05A6BD046E914623037E07EE9774
:100B1B0048D749BD05E5812C2604087E0A8A811E2B
:100B2B0026967E0A82BD02C8DE99EE006D00270371
:100B3B000820F9E700BD02DD39DE34BD039524033F
:100B4B007E0A49DF34BD0461DE538C00992605C64D
:100B5B00107E0692A70008E70008DF53DE34BD05C0
:100B6B00E508813D27037E0A56BD04BDBD02E8089A
:100B7B00815426F2A60008814F26EBBD04BDBD04AF
:100B8B006EDF34DE53A70008E70008DF53DE34A620
:100B9B0000811E26D108DF36DE539636A70008D615
:100BAB0037E70008DF537E07F3DE34BD03952403DC
:100BBB007E0A49BD05E5811E26D908DF36CE0069C0
:100BCB00BD04619C53273AA100262EE101262ABDC4
:100BDB000301BD0461E003A2022505DF537E07F389
:100BEB00BD046ECB018900BD02C8EE00A700E70172
:100BFB00BD02DDEE04DF3620E408080808080820F3
:100C0B00C2C6117E0692DE34BD04BD8D17974DBD55
:100C1B0004BDDF348D4A24037E0A82DE34BD060F09
:100C2B00EE006E00BD05E508813D2603860039E622
:100C3B0000813C2613C13D260408860239C13E269D
:100C4B000408860339860139813E2705C6067E06D0
:100C5B0092C13D260408860539C13C27E486043938
:100C6B00964D4848B70C7DCE0C7EBD05A1BD046EDC
:100C7B004D6E00271820122B12200E2B0E20F4265F
:100C8B000A200F270D2B022A020D390C395D27FB89
:070C9B0020F75D26F620F2B0
:021F4800010096
:00000001FF
