:040000000128FE2FA6
:100F12007030210099003F30980023008C0121009D
:100F22009513FB308C000C302500930033302000E9
:100F32009B000230F0000030F1001B08F900FA01BA
:100F42007908F2007A08F300AD27700825009100B5
:100F520020009C011C15AC2FF601F11FB72FF009E0
:100F6200F109F00A0319F10AF601F60AF31FC22F7A
:100F7200F209F309F20A0319F30A0130F4007408C2
:100F8200F606F701F801700871040319F12FF50153
:100F9200F50AF11BD62F0130F035F10D890BCD2F5B
:100FA2000130F4007408F507CA2F0130F735F80D47
:100FB200890BD72F71087302031DE12F700872028B
:100FC200031CE82F7008F2027108F33B771401301A
:100FD200F136F00C890BE92F0130F502031DD62FF3
:100FE20076080319F92FF709F809F70A0319F80A1D
:0E0FF2007808F1007708F00008002000892F31
:020000040001F9
:04000E00E4FFFFFF0D
:00000001FF
