:10E00000B68018472423F6801996008110271A4CF1
:10E01000970096029B069704860099059703DE03F6
:10E02000E70096024C840F97023BB680184724FA0B
:10E03000B68019399600810027FA4A97000F960199
:10E040009B069704860099059703DE0396014C848E
:10E050000F9701A6000E3936B68018474724F932CB
:10E06000B780193936A60081002706BDE057082081
:10E07000F432390D0A4B4559494E205448454E203B
:10E080004543484F0D0A008E1FFFCE0007DF057F76
:10E0900000007F00017F00028603B780188695B7D5
:10E0A00080180ECEE073BDE064BDE034BDE05720C3
:02E0B000F83B3B
:08FFF800E000E0B1E0B1E08798
:00000001FF
